:020000040800F2
:100000000000012095FD0008E1FD0008E1FD000869
:10001000E1FD0008E1FD0008E1FD0008000000002E
:10002000000000000000000000000000E1FD0008EA
:10003000E1FD000800000000E1FD00080DAB000834
:10004000E1FD0008E1FD0008E1FD0008E1FD000818
:10005000E1FD0008E1FD0008E1FD0008E1FD000808
:10006000E1FD0008E1FD0008E1FD0008E1FD0008F8
:10007000E1FD0008E1FD0008E1FD0008E1FD0008E8
:10008000E1FD0008E1FD0008E1FD0008E1FD0008D8
:10009000E1FD0008E1FD0008E1FD0008E1FD0008C8
:1000A000E1FD0008E1FD0008E1FD0008E1FD0008B8
:1000B000E1FD0008E1FD0008E1FD0008E1FD0008A8
:1000C000E1FD0008E1FD0008E1FD0008E1FD000898
:1000D000E1FD0008E1FD0008E1FD0008E1FD000888
:1000E000E1FD0008E1FD0008E1FD0008E1FD000878
:1000F000E1FD0008E1FD0008E1FD0008E1FD000868
:10010000E1FD0008E1FD0008E1FD0008E1FD000857
:10011000E1FD0008E1FD0008E1FD0008E1FD000847
:10012000E1FD0008E1FD0008E1FD0008E1FD000837
:1001300000000000000000000000000000000000BF
:1001400000000000000000000000000000000000AF
:10015000000000000000000000000000000000009F
:10016000000000000000000000000000000000008F
:10017000000000000000000000000000000000007F
:10018000000000000000000000000000000000006F
:10019000000000000000000000000000000000005F
:1001A000000000000000000000000000000000004F
:1001B000000000000000000000000000000000003F
:1001C000000000000000000000000000000000002F
:1001D000000000000000000000000000000000001F
:0401E0005FF8E0F1F3
:1001E4002F6C69622F6C642D6C696E75782E736F39
:0301F4002E3300A7
:1001F80000000000000000000000000000000000F7
:10020800320B0000E1FD0008040000002200070096
:1002180063100000FDCE000858000000120007001F
:10022800C50A00000DAB00082200000012000700FC
:10023800530E0000CDEC00082A0000001200070051
:10024800720A0000E1FD0008040000002200070017
:100258006A160000B5E5000820000000120007003B
:10026800360C000031AB00086C00000012000700DB
:10027800A9030000F9BE0008EC0100001200070005
:1002880050100000855300083802000012000700D3
:100298000C120000C1A50008300000001200070081
:1002A800AC14000069DD00081C0000001200070003
:1002B800EC0C0000D1E300083A000000120007002F
:1002C800CD14000025FB00080800000012000700FC
:1002D800670F00004C0100200400000011000C0012
:1002E8004702000005B700083000000012000700B0
:1002F800680300004DCC00081A0000001200070037
:100308007B0C0000E1FD000804000000220007004B
:100318006D19000039E500084000000012000700D0
:10032800AB0100007DF50008200000001200070066
:1003380097190000B1C2000834000000120007003D
:10034800900F0000019D00082C000000120007001B
:10035800B0000000E1FD00080400000022000700D2
:10036800450B0000E1FD0008040000002200070022
:10037800BF0C0000E5C000087C0000001200070068
:100388002C14000029A40008300000001200070007
:100398004A06000079DE00088C0000001200070001
:1003A80024080000E9CC00084E00000012000700F5
:1003B800E30B000041C200081A0000001200070009
:1003C80013160000680100201400000011000C0042
:1003D800BA100000B1FC000822000000120007005B
:1003E80098170000B1D4000852000000120007005E
:1003F800350A0000E1FD00080400000022000700A3
:10040800D2080000DDBC0008300000001200070020
:100418006F0D0000581005080800000011000700C3
:10042800DE070000800100200400000011000C001D
:10043800730100001DBA00081A000000120007002E
:10044800BC07000041F1000824000000120007006A
:10045800DA180000C1A4000800010000120007001B
:10046800FA0D000055CF00087200000012000700C6
:100478007610000039B600083400000012000700AA
:10048800EB110000D5FC0008220000001200070054
:10049800D80300005950000810030000120007009C
:1004A8001707000059DC00081C00000012000700B4
:1004B8002C020000EDFB00081E00000012000700DF
:1004C80055120000DDD20008D40000001200070019
:1004D8004201000015F600081E0000001200070087
:1004E80011060000F972000826000000120007003B
:1004F800880B0000E1FD000804000000220007004E
:100508007E1A000061C100085400000012000700B4
:10051800130C0000C5EF00084E0000001200070091
:100528004F17000045FB00081E00000012000700DE
:10053800F407000065F10008380000001200070009
:10054800980A000021EB00083E0000001200070096
:10055800E1130000B9C400082400000012000700DD
:1005680058140000E1FD0008040000002200070004
:10057800B316000045FC0008220000001200070026
:100588001C050000280000200100000011000900DF
:10059800D40600003DDC00081A0000001200070025
:1005A800F509000049F500081800000012000700CE
:1005B800530C0000E5B600081E00000012000700FA
:1005C800C905000055AC00089001000012000700A2
:1005D800E612000065C400083000000012000700A1
:1005E8006C14000059F400081A00000012000700FB
:1005F800DA04000001B60008360000001200070007
:100608006E13000000000008000000001100010047
:10061800EB1A0000A1F200083600000012000700E3
:100628008F020000A5F300081E000000120007005A
:10063800810A000049B300087A0000001200070090
:100648009F100000B5FB00081E0000001200070004
:10065800B30C00005DD60008360000001200070049
:10066800801B0000E1FD00080400000022000700D4
:100678003C070000F9FC00082200000012000700F7
:10068800411600003DBD00083800000012000700B8
:10069800E9040000D9E200083C000000120007004D
:1006A800CA07000065C500087800000012000700AE
:1006B8004B09000009DC00083400000012000700A4
:1006C8004C0C000000000020000000001000090091
:1006D8009012000075EF00084E000000120007009D
:1006E800570D0000E9B900083400000012000700A7
:1006F80018020000D9AA0008340000001200070000
:1007080080030000E1FD000804000000220007004B
:10071800D805000085F000081C0000001200070042
:10072800B00B000011D90008F0000000120007000B
:100738000A100000F1A100083802000012000700AA
:100748005E060000C1E90008420000001200070030
:10075800FA0B0000E1FD0008040000002200070079
:100768004E0F0000E1FD0008040000002200070011
:10077800A8150000418C00083E0000001200070088
:100788008B170000058E0008EE000000120007001D
:100798003404000081CC0008340000001200070077
:1007A800330800002DB800083400000012000700CC
:1007B8003316000061F500081A0000001200070057
:1007C800C8160000E1FD0008040000002200070030
:1007D800E7000000ADC30008420000001200070057
:1007E8005707000069CC0008180000001200070035
:1007F800CE0F0000458900084000000012000700E5
:100808001F11000039F300081C0000001200070047
:100818009A05000098B704080800000011000700B6
:10082800170A000044000020100000001100090011
:1008380017150000500100201800000011000C00DE
:10084800FC050000F99100082000000012000700D4
:10085800D600000014A201080800000011000700DB
:100868001309000025D20008B60000001200070096
:100878002319000099BC000842000000120007007C
:10088800551900006DCA00082A010000120007006F
:100898004B1B0000E1FD00080400000022000700D7
:1008A80048140000E1FD00080400000022000700D1
:1008B8003E1B0000D59B0008240000001200070022
:1008C800D9020000E1FD0008040000002200070032
:1008D800710F000019ED0008BA01000012000700AE
:1008E800E7140000F95B0008360100001200070059
:1008F800FB170000E1FD00080400000022000700CB
:10090800100300000DBD00083000000012000700B1
:1009180099070000C1F60008360000001200070021
:1009280043130000E9B70008420000001200070066
:100938000E0B00007DFB00081E00000012000700DF
:10094800F80E0000A1F000082000000012000700C7
:1009580065020000C1A000082E0100001200070077
:10096800730500009DBD0008360000001200070056
:10097800BA0D000095D60008C0000000120007005C
:10098800C313000095E300081E00000012000700D2
:100998008A160000E5B4000878000000120007007D
:1009A800B60A00008DE6000860000000120007008B
:1009B800851200006DE100083C00000012000700ED
:1009C8002F030000B9DB0008340000001200070004
:1009D8003F0500005400002000000000100009003E
:1009E800451A00004D9B00081E0000001200070079
:1009F800041400009DF10008200000001200070008
:100A08005E0B000055BB0008300000001200070014
:100A18000B000000319700082400000012000700B6
:100A2800C715000085BB000814010000120007006C
:100A3800BB1B000049910008AE000000120007002F
:100A4800C90000001D8B0008080100001200070003
:100A580027010000E0FD0008040000001000070066
:100A6800AA090000E1FD00080400000022000700B8
:100A7800ED0D0000B1A6000860000000120007009C
:100A88008F150000DDC5000878000000120007007F
:100A9800F7050000E1B00008660200001200070038
:100AA800A8080000E1FD000804000000220007007B
:100AB800C612000001DA0008160000001200070044
:100AC800D7140000DDC400088600000012000700EB
:100AD8000115000039C300083400000012000700A7
:100AE800390600006DC300083E0000001200070030
:100AF800FC08000000000000000000001000F1FFEA
:100B0800CF090000E1FD00080400000022000700F2
:100B18006C120000E1FD000804000000220007003C
:100B280040140000B5C1000836000000120007009C
:100B38002718000081EA00083E00000012000700A4
:100B4800EA180000E1FD0008040000002200070088
:100B5800BF1A0000E5C20008540000001200070098
:100B68008B0C0000E1FD00080400000022000700D3
:100B7800BA020000D00000200000000010000C00A5
:100B88005C08000029C900084401000012000700A1
:100B980062090000258C00081C00000012000700F4
:100BA800B3130000D19C00083000000012000700B9
:100BB800E51700005DE200083C0000001200070095
:100BC80060040000E1FD00080400000022000700A6
:100BD800AD06000019F700083600000012000700F3
:100BE800C0140000D95D0008D803000012000700F7
:100BF800BB16000035C400083000000012000700D2
:100C080011010000D5F500081E00000012000700C1
:100C18006618000055F300084E0000001200070097
:100C2800651B000015FB00081000000012000700FB
:100C3800C8020000E1FD00080400000022000700CF
:100C4800B9040000715D0008680000001200070088
:100C5800DE10000075F400082A00000012000700EA
:100C6800830D0000F9EC00081E00000012000700C8
:100C7800060F0000E1FD0008040000002200070044
:100C880080170000840100200001000011000C0002
:100C9800E806000015E300083C0000001200070009
:100CA8003C09000019920008A60000001200070085
:100CB8003D0E0000A99E0008D600000012000700A3
:100CC8001E020000D9F200081C00000012000700F4
:100CD800580300003D9A00080E01000012000700AA
:100CE800CB040000E1EA00083E0000001200070003
:100CF800BE06000021E800082C00000012000700D2
:100D08001B120000E1FD000804000000220007009B
:100D1800CD0B0000F1A500081E000000120007001E
:100D2800BC0B0000E1FD00080400000022000700E1
:100D3800E30300006C5D05080000000010000700D8
:100D4800AA1300005DB50008A40000001200070007
:100D58002B1200009575000896000000120007008D
:100D6800E1150000396C0008BE06000012000700FB
:100D78000A18000055D70008640000001200070098
:100D880024130000B54F0008A2000000120007005D
:100D9800A817000065AF00089000000012000700C7
:100DA8007C060000E1FD00080400000022000700A6
:100DB800830F0000A1B600084200000012000700DF
:100DC8003610000055F600081E000000120007004B
:100DD800A71200009DF50008180000001200070087
:100DE80003170000D5D5000888000000120007008E
:100DF8009F0D0000BDDC00081C0000001200070069
:100E0800FF18000039BA0008180000001200070097
:100E1800E20900009DAB00084C000000120007002A
:100E28004308000061B800088601000012000700AE
:100E3800970C0000E1FD00080400000022000700F4
:100E4800EF100000E1FD0008040000002200070088
:100E58000412000098020020B801000011000C00E4
:100E68008A01000051F700081E0000001200070068
:100E78002C130000B5F500081E0000001200070042
:100E8800ED160000D00000200400000011000C0046
:100E9800FC040000EDBA000834000000120007004E
:100EA80028050000340100201800000011000C0083
:100EB800BC090000E1FD0008040000002200070052
:100EC8005F0A0000E1FD000804000000220007009E
:100ED800AA0D0000E1FD0008040000002200070040
:100EE800381800007C0100200400000011000C00EC
:100EF800D7190000BDCE000840000000120007000E
:100F08003701000065EA00081C0000001200070015
:100F18006B01000069FC00082200000012000700B5
:100F2800B30E0000217300086600000012000700DD
:100F380081130000E1FD0008040000002200070002
:100F4800D612000075BE0008560000001200070007
:100F58003C0C00002D760008EA0200001200070091
:100F6800F1130000E1FD0008040000002200070062
:100F780084140000E1FD00080400000022000700BE
:100F8800FB1A0000E1FD0008040000002200070031
:100F980058010000B1610008D204000012000700E7
:100FA8006F00000085660008B20500001200070007
:100FB8009B02000085DD0008F20000001200070017
:100FC800C80C000011E600083C00000012000700F1
:100FD8009E0B0000C98F0008AC000000120007003B
:100FE80045150000F99B0008B40000001200070036
:100FF8002400000025EF00084E0000001200070042
:101008005300000091DC00082C00000012000700CB
:10101800D80F000095C40008240000001200070043
:1010280023090000F5F500081E0000001200070063
:10103800CF180000307C03080800000011000700EA
:1010480045190000FDE400083C00000012000700FC
:101058008319000039CD00085A000000120007006B
:1010680036150000BD5500083A06000012000700BA
:10107800B215000019CE0008640000001200070035
:10108800F7020000B5E300081C000000120007008A
:10109800BF18000075F600082C00000012000700B9
:1010A8000D0D0000F5E000083C00000012000700EC
:1010B800320D000011F5000838000000120007008A
:1010C800640E0000D00000200000000010000C009A
:1010D800F8120000E1FD00080400000022000700EB
:1010E800000D00006D9B00081E00000012000700A4
:1010F800300E0000A1EB00085A00000012000700A3
:101108007B130000580400200000000010000C00B1
:10111800A1110000BDE40008400000001200070013
:1011280057160000E1FD0008040000002200070037
:10113800F7190000A1F400086E0000001200070073
:10114800FC030000E1FD0008040000002200070085
:101158002407000025FC00082000000012000700FA
:1011680036170000D5BD00084A000000120007002D
:10117800950E0000C5F30008640000001200070087
:10118800071A0000ECDD0208080000001100070043
:10119800371A000021EA0008440000001200070086
:1011A800EE0E00003DFB00080800000012000700DA
:1011B800A000000095CD00081E00000012000700E6
:1011C800460A00006DB6000834000000120007004F
:1011D800DB110000E1FD0008040000002200070008
:1011E800C31000007DCE0008400000001200070078
:1011F8007C0E000055B70008300000001200070000
:10120800FB100000A9E100083C00000012000700E4
:10121800F60A000051BA0008340000001200070066
:1012280045070000C9CF000844000000120007006D
:10123800B61100007DE4000840000000120007001D
:10124800FA010000D5E500083C0000001200070084
:101258001C0D000071E900084E0000001200070094
:101268008C100000E1FD00080400000022000700C7
:10127800AC070000B5CD00086400000012000700AC
:101288008D1A0000E1FD000804000000220007009C
:10129800D8010000E1FD000804000000220007005A
:1012A800E40A0000E5E100083C0000001200070025
:1012B800460D000079E500083C0000001200070018
:1012C800170F0000E1FD00080400000022000700DD
:1012D8006100000095FD00083800000022000700AA
:1012E800D50A0000F9F600081E00000012000700E9
:1012F800BB03000085F70008A600000012000700E5
:10130800CD11000059EC000854000000120007003D
:10131800AB180000C1EA0008200000001200070016
:101328003B000000E9E80008860000001200070002
:1013380025060000E1FD0008040000002200070067
:101348009A180000E1FD00080400000022000700D0
:1013580004080000E1FD0008040000002200070066
:10136800BE12000031E100083C0000001200070036
:10137800CE0E0000FDEB00081C0000001200070064
:1013880039120000C1F000088000000012000700B8
:1013980078150000A1D800086E00000012000700B0
:1013A8009E0F000099E200084000000012000700AC
:1013B8009C09000055BE00081E000000120007002E
:1013C8005411000035F600081E0000001200070046
:1013D800BB050000C58D0008400000001200070092
:1013E80005160000D40000200400000011000C00C5
:1013F8004900000025AC000830000000120007007A
:10140800F40F00002DF800083C010000120007004E
:10141800BE0F0000D5FB00081800000012000700EE
:10142800CA170000D19300080A0100001200070043
:10143800981B000075BD0008260000001200070078
:10144800C6030000E1FD00080400000022000700B8
:1014580004060000EDC10008380000001200070073
:10146800F4110000E1FD000804000000220007005C
:1014780025170000500400200400000011000C0093
:10148800950900008DFC00082200000012000700EA
:1014980026100000E1FD00080400000022000700FB
:1014A8000703000069DF00088A0100001200070036
:1014B800DF0E00008DD5000848000000120007006C
:1014C800251B000085B70008340000001200070043
:1014D800DF000000F5AF0008580000001200070008
:1014E8000502000029F4000830000000120007007F
:1014F800910D00000DFC0008180000001200070004
:101508001A14000079C70008AC0000001200070098
:101518004F1A0000B5CC0008340000001200070084
:10152800970B000050580508000000001000070045
:101538006A0E00005DC20008540000001200070097
:10154800DC0C0000E1FD0008040000002200070098
:10155800D717000065FB00081800000012000700FC
:10156800BA010000695300081A00000012000700C1
:10157800B4030000AD9C0008220000001200070020
:101588001408000061EB000840000000120007008A
:101598005715000021BB00083400000012000700A6
:1015A80053180000E1FD00080400000022000700B5
:1015B80096040000B9BA00083400000012000700C1
:1015C8006B1700003DE4000840000000120007000F
:1015D800A405000025C200081C0000001200070036
:1015E8007F11000000020000000000001000F1FF61
:1015F80007070000E5AD00088001000012000700A1
:10160800C601000031E7000866000000120007006C
:1016180045030000EDDB00081A0000001200070077
:1016280055040000840200201400000011000C0082
:1016380089070000899900082A00000012000700A5
:101648004B120000959300083C00000012000700B0
:1016580058050000E1FD0008040000002200070012
:101668002A070000E1FD000804000000220007002E
:10167800E8080000B1D300087C0000001200070051
:10168800A60E000059A40008680000001200070018
:10169800C80D000091C8000898000000120007005B
:1016A80032110000E1FD00080400000022000700DC
:1016B800CF1A00004DE600084000000012000700A5
:1016C80078080000B9B700083000000012000700D1
:1016D8009516000005DF00081C0000001200070036
:1016E8004318000040000020040000001100090019
:1016F80013100000D9DC00084200000012000700A7
:10170800AF10000005EA00081C00000012000700E6
:10171800E307000021D8000880000000120007003D
:10172800000100000DD000083C0100001200070075
:10173800370F000015F000084E00000012000700E7
:101748001E1900004DB000089400000012000700A8
:10175800250A000091DB000826000000120007009F
:101768008D09000000000120000000001000F1FFBA
:101778009513000035B700081E000000120007008E
:10178800E902000075900008D2000000120007006E
:1017980099050000B41804080800000011000700AB
:1017A800141B0000EDE600084400000012000700CA
:1017B800090A00008D9B000846000000120007007F
:1017C8004A0E00001DFD0008280000001200070056
:1017D800E30F0000E1FD00080400000022000700FC
:1017E8000D040000CDBE00082A000000120007000A
:1017F800D816000061A7000840000000120007008A
:10180800A5190000E1FD00080400000022000700FF
:101818000C130000F1C3000842000000120007008A
:101828006F1B00000DE400082E00000012000700E6
:10183800E40D000045FD0008280000001200070024
:10184800BA170000E1FD00080400000022000700AC
:1018580062130000BDF100087E00000012000700BE
:101868000B090000F58E0008D400000012000700E4
:10187800790D0000F8450508080000001100070070
:1018880097080000E1FD000804000000220007009E
:101898007409000030460508D01100001100070047
:1018A800121100003DA80008DA000000120007002D
:1018B8007D16000005D5000888000000120007000A
:1018C800A80A000049D10008DC0000001200070047
:1018D8002A0C0000505805080000000010000700FE
:1018E800680C0000E1FD0008040000002200070069
:1018F8008A180000E1FD000804000000220007002B
:10190800F305000019A900081A01000012000700D9
:101918001F0E000021E200083C0000001200070032
:1019280075160000B58D00080E00000012000700B3
:101938002A0B0000C1920008D20000001200070024
:10194800920300001DDD00084C0000001200070093
:101958007B04000099CB0008B400000012000700C7
:101968001C0B00009DFB0008180000001200070077
:101978002A0F00002D9D00084600000012000700F5
:10198800F91600003DF2000864000000120007008C
:10199800850A0000F5F20008420000001200070066
:1019A80029160000C5B30008B200000012000700A5
:1019B800B6190000ADEC00081E0000001200070078
:1019C800F10100006DFD000826000000120007006C
:1019D80013170000E1FD00080400000022000700C2
:1019E8005D170000505805080000000010000700AF
:1019F800A101000019DA00087601000012000700B2
:101A08007D00000085BA00083400000012000700BD
:101A1800B40F0000E9AB00083A000000120007000C
:101A2800F5150000C5E700085A000000120007007D
:101A3800111A0000E1FD0008040000002200070060
:101A480080090000759D000832010000120007009F
:101A58007802000055C600082401000012000700A3
:101A6800FB060000580400200000000010000C00D5
:101A7800B31A0000540400200400000011000C00F8
:101A8800AF020000819F00083E010000120007001D
:101A98002A150000E599000856000000120007000A
:101AA800C1190000D5EE00084E0000001200070022
:101AB8006C11000065F000081E000000120007000D
:101AC8006D1A000019790008BE0300001200070013
:101AD800EB030000315D00083E0000001200070023
:101AE8009B060000A1F600081E0000001200070077
:101AF800BC08000025C800086C00000012000700A0
:101B08009D140000B9D70008680000001200070003
:101B18008F11000021BE00083400000012000700E9
:101B28007A07000075DC00081C000000120007009E
:101B380023040000E1FD0008040000002200070063
:101B480046050000E1FD000804000000220007002F
:101B58003A02000011A70008500000001200070018
:101B68001E000000300100200400000011000C00DD
:101B7800A90C00002DFB000810000000120007004F
:101B8800A61A000051E300084400000012000700F4
:101B98007E10000011A600089E0000001200070039
:101BA8008B060000A1A700089A0000001200070099
:101BB800741800002DD400088400000012000700EB
:101BC800291A000004000020040000001100090088
:101BD8004B110000897300080A0200001200070078
:101BE800D013000019EC00083E00000012000700A6
:101BF8001D180000603705080800000011000700E4
:101C0800510A000099E700082C00000012000700A4
:101C1800C30E000021DF0008460000001200070084
:101C280014000000DD9400085402000012000700B0
:101C38000A0E0000E1FD0008040000002200070071
:101C4800950000004DE800089A0000001200070007
:101C5800B912000079B400086A00000012000700F9
:101C6800006C6962632E736F2E360076737072692A
:101C78006E74660076736E7072696E746600696E53
:101C8800646578005243435F41504232506572693F
:101C98007068436C6F636B436D64005243435F48E5
:101CA8005345436F6E666967006D795F7374726C34
:101CB800656E004750494F5F577269746542697491
:101CC8000052657365745F48616E646C6572005399
:101CD800445F5772697465426C6F636B004144439B
:101CE8005F496E6A6563746564446973634D6F64C4
:101CF80065436D64005243435F4465496E697400EF
:101D0800464C4153485F436C656172466C6167009D
:101D1800444D41325F4368616E6E656C325F495273
:101D28005148616E646C657200747368775F6765AB
:101D3800745F726177004269675F466F6E74007204
:101D480065766572736500464C4153485F48616C1F
:101D5800664379636C65416363657373436D6400BF
:101D680046534D435F4E4F525352414D496E69742D
:101D7800005344494F5F53746F705344494F526541
:101D88006164576169740044656661756C745F4885
:101D9800616E646C6572005243435F504C4C436DF6
:101DA80064005344494F5F5365745344494F4F701F
:101DB80065726174696F6E0053445F526561644D6A
:101DC800756C7469426C6F636B73005F5F52455644
:101DD8005348004144435F476574436F6E766572AC
:101DE80073696F6E56616C7565005344494F5F4364
:101DF8006C656172495450656E64696E67426974B6
:101E0800004750494F5F496E6974005344494F5F1A
:101E18005772697465446174610053445F506F7709
:101E280065724F4646004932435F476574466C61A8
:101E38006753746174757300444D41315F43686141
:101E48006E6E656C345F49525148616E646C6572A0
:101E5800005F5F535452455857004932435F41521F
:101E680050436D64005344494F5F436D645374722B
:101E7800756374496E69740044656C6179005344F4
:101E8800494F5F436C6F636B436D64005F5F6765C9
:101E9800745F434F4E54524F4C004C434453657447
:101EA800426F756E6473004144435F4765745265C1
:101EB80073657443616C6962726174696F6E53749F
:101EC80061747573004C43445F536574546573744F
:101ED8005061747465726E00464C4153485F457298
:101EE8006173654F7074696F6E42797465730053DE
:101EF80044494F5F444D41436D64004750494F5F2B
:101F080050696E52656D6170436F6E666967004C0B
:101F180043445F5072696E7466005F5F6273735FFB
:101F280073746172745F5F0045585449315F495258
:101F38005148616E646C65720054494D355F495271
:101F48005148616E646C6572004932435F4279742E
:101F5800655772697465004932435F526563656904
:101F6800766544617461004932435F496E69740063
:101F78004144435F476574496E6A656374656443A9
:101F88006F6E76657273696F6E56616C7565004722
:101F980050494F5F52656164496E7075744461744D
:101FA80061426974004750494F5F52656164496EE8
:101FB80070757444617461004C43445F4472617786
:101FC8005069637475726500464C4153485F4765B4
:101FD80074557365724F7074696F6E4279746500D9
:101FE80054414D5045525F49525148616E646C6589
:101FF80072004750494F5F4576656E744F7574702F
:102008007574436F6E66696700444D415F44654966
:102018006E6974006D795F616273005379737465DA
:102028006D496E697400486172644661756C745FCD
:1020380048616E646C65720053445F506F776572D7
:102048004F4E005F7369646174610053445F536568
:10205800744465766963654D6F64650042757346BF
:1020680061756C745F48616E646C657200414443CD
:102078005F436C656172495450656E64696E67426E
:1020880069740045585449345F49525148616E6437
:102098006C657200464C4153485F476574526561F0
:1020A800644F757450726F74656374696F6E53749E
:1020B80061747573005243435F436C6F636B7300C5
:1020C800444D41325F4368616E6E656C345F355FC5
:1020D80049525148616E646C657200464C415348E0
:1020E8005F557365724F7074696F6E42797465439A
:1020F8006F6E666967004144435F45787465726E28
:10210800616C54726967496E6A6563746564436F8C
:102118006E76436F6E6669670053445F53656C65FE
:102128006374446573656C656374005243435F4828
:10213800434C4B436F6E666967004144435F537479
:1021480072756374496E6974004932435F447561FE
:102158006C41646472657373436D64004144435F0A
:1021680045787465726E616C54726967496E6A6508
:1021780063746564436F6E76436D64007265647260
:1021880061775F54455354005344494F5F44617429
:1021980061496E6974537472756374757265005F12
:1021A800656461746100414443315F325F49525153
:1021B80048616E646C6572005553425F4C505F43D2
:1021C800414E315F5258305F49525148616E646CDC
:1021D8006572004144435F416E616C6F675761747B
:1021E8006368646F6753696E676C654368616E6E98
:1021F800656C436F6E6669670069446967697473E3
:102208005F343800444D415F5365744375727244BE
:10221800617461436F756E7465720074735F67658E
:10222800745F73616D706C6500696E69745F6D656C
:102238006E755F6974656D005243435F436C6F63ED
:102248006B536563757269747953797374656D43FB
:102258006D64006C63645F746573740050757443D7
:1022680068617200444D415F4954436F6E66696707
:102278000053445F4765745472616E7366657253A8
:10228800746174650054494D315F42524B5F495245
:102298005148616E646C657200464C4153485F5307
:1022A80065744C6174656E6379004750494F5F45AA
:1022B8005854494C696E65436F6E666967005243AE
:1022C800435F41646A75737448534943616C69623A
:1022D800726174696F6E56616C75650050656E64E5
:1022E80053565F48616E646C657200647261775F13
:1022F8006368657373626F617264005344494F5F2A
:1023080053656E644345415441436D6400534449E9
:102318004F5F47657449545374617475730049324B
:10232800435F436C656172495450656E64696E67BA
:10233800426974004750494F5F526561644F757434
:1023480070757444617461004932435F47656E6516
:1023580072616C43616C6C436D64005F5F627373A0
:102368005F656E645F5F00647261775F6D656E754F
:102378005F6974656D73004750494F5F53657442D8
:10238800697473005F5F524556004D656D4D616E0F
:102398006167655F48616E646C6572005F5F4C449D
:1023A800524558570046534D435F504343415244AA
:1023B8004465496E697400464C4153485F476574EB
:1023C800577269746550726F74656374696F6E4F84
:1023D8007074696F6E42797465004750494F5F5257
:1023E8006573657442697473004C43444255535F86
:1023F8005772697465526567005344494F5F476572
:1024080074466C616753746174757300464C41532C
:10241800485F476574537461747573005243435F32
:10242800436C656172466C616700464C4153485F76
:102438004572617365416C6C506167657300666FC6
:102448006E740046534D435F476574495453746135
:10245800747573005243435F4765744954537461FC
:1024680074757300414443335F49525148616E6447
:102478006C6572005243435F50434C4B32436F6E5E
:1024880066696700464C4153485F4954436F6E661E
:102498006967004144435F446973634D6F646543F2
:1024A8006D64004144435F526567756C61724368AF
:1024B800616E6E656C436F6E66696700464C41538A
:1024C800485F456E61626C65577269746550726FDA
:1024D80074656374696F6E004144435F4765745364
:1024E8006F6674776172655374617274436F6E7648
:1024F8005374617475730055415254345F49525195
:1025080048616E646C65720054494D385F42524BA5
:102518005F49525148616E646C657200464C415384
:10252800485F50726F6772616D48616C66576F7271
:1025380064004144435F536574496E6A656374651A
:10254800644F66667365740046534D435F4E414E53
:1025580044537472756374496E6974005F4D696E93
:102568005F486561705F53697A650074735F706F67
:102578006C6C0046534D435F504343415244496E8F
:102588006974005344494F5F5365745344494F522B
:10259800656164576169744D6F6465005075745561
:1025A8006E7369676E6564496E74004750494F5F82
:1025B800526561644F7574707574446174614269E1
:1025C8007400747368775F707265706172655F77A5
:1025D8006169740041534349495F5461626C650005
:1025E8004C43445F447261774C696E65005F657364
:1025F8007461636B005F5F52424954004144435F1A
:10260800436C656172466C616700555341525431A1
:102618005F49525148616E646C65720054494D3887
:102628005F55505F49525148616E646C6572004550
:10263800585449395F355F49525148616E646C6539
:102648007200636865636B5F70726573735F627550
:1026580074746F6E005344494F5F476574446174E6
:1026680061436F756E746572004C43445F536574C3
:10267800437572736F7200414842507265736354B8
:1026880061626C65004750494F5F5374727563749B
:10269800496E697400464C4153485F49525148613C
:1026A8006E646C6572004144435F444D41436D6400
:1026B800004932435F436C656172466C616700553F
:1026C800736167654661756C745F48616E646C65BB
:1026D80072005254435F49525148616E646C65728E
:1026E80000693263005344494F5F536574506F77F4
:1026F80065725374617465005243435F50434C4B99
:1027080031436F6E6669670046534D435F4E414ED5
:1027180044496E6974004932435F436865636B4599
:1027280076656E74005379735469636B5F48616EA4
:10273800646C6572005344494F5F436C656172462F
:102748006C6167004932435F47656E657261746505
:102758005354415254004144435F4175746F496E6C
:102768006A6563746564436F6E76436D64005F5F8A
:102778006765745F5052494D41534B005F5F736505
:10278800745F5052494D41534B00507574486578F9
:102798006100493243325F45565F49525148616E84
:1027A800646C657200444D41315F4368616E6E65CB
:1027B8006C315F49525148616E646C6572004144E6
:1027C800435F476574536F667477617265537461CC
:1027D8007274496E6A6563746564436F6E76436D9F
:1027E80064537461747573005243435F495251488E
:1027F800616E646C6572005F657465787400493257
:10280800435F436F6E66696775726174696F6E00C6
:102818004750494F5F4465496E69740055415254A9
:10282800355F49525148616E646C6572004C43448F
:102838005F53657443757272656E74426967466F5B
:102848006E7400444D415F4765744375727244610C
:102858007461436F756E74657200444D41315F4316
:1028680068616E6E656C335F49525148616E646C85
:102878006572005243435F4150423250657269703D
:10288800685265736574436D64005F5F6578696459
:10289800785F656E6400626C696E6B0053445F53C9
:1028A800656E645344537461747573005F73646137
:1028B8007461004144435F526573657443616C6998
:1028C80062726174696F6E00493243325F45525FCC
:1028D80049525148616E646C657200535049325FC9
:1028E80049525148616E646C6572005356435F48A3
:1028F800616E646C6572005553415254335F49529E
:102908005148616E646C6572005F5F6765745F4D06
:1029180053500046534D435F476574454343004455
:102928004D415F496E6974004932435F5374726563
:10293800746368436C6F636B436D640046534D4327
:102948005F49525148616E646C6572004932435F59
:1029580053656E64376269744164647265737300A9
:102968004C43445F577269746552414D0049324384
:102978005F537472756374496E6974005243435FA0
:1029880057616974466F7248534553746172745540
:1029980070005344494F5F446174615374727563A6
:1029A80074496E6974004932435F43616C63756CA6
:1029B800617465504543004144435F4578746572CE
:1029C8006E616C54726967436F6E76436D64004440
:1029D80069676974735F3336004469676974735F44
:1029E8003134005243435F525443434C4B436D646C
:1029F800005F5F7365745F434F4E54524F4C0047FE
:102A080050494F5F577269746500535049315F49A7
:102A1800525148616E646C65720046534D435F497C
:102A280054436F6E66696700464C4153485F507265
:102A38006F6772616D4F7074696F6E427974654427
:102A4800617461005F5F535452455848004C4344D9
:102A58005F44726177477269640046534D435F4E25
:102A6800414E444465496E697400455854493135AE
:102A78005F31305F49525148616E646C657200493C
:102A880032435F47656E657261746553544F5000F9
:102A98005243435F4954436F6E666967004C434431
:102AA8005F4472617743686172005F5F53545245B7
:102AB8005842005243435F525443434C4B436F6E5A
:102AC800666967005F7362737300444D415F4765D1
:102AD80074466C6167537461747573004144435F55
:102AE80047657443616C6962726174696F6E53748F
:102AF80061747573005344494F5F53656E64436F47
:102B08006D6D616E64004C43445F4765745061723B
:102B1800616D0053445F53746F705472616E7366D5
:102B28006572004932435F4465496E6974005243D7
:102B3800435F555342434C4B436F6E66696700468B
:102B4800534D435F504343415244436D64005F5FBC
:102B58007365745F4D5350005243435F4D434F4379
:102B68006F6E6669670045585449335F495251484A
:102B7800616E646C657200493243315F45565F4946
:102B8800525148616E646C6572004C43445F4472F4
:102B9800617752656374005243435F41504231503C
:102BA80065726970685265736574436D6400444D5D
:102BB80041315F4368616E6E656C355F49525148BB
:102BC800616E646C65720053726342756666657205
:102BD800005243435F476574436C6F636B7346727F
:102BE8006571004144435F4954436F6E66696700ED
:102BF8004C43445F436F6E536574506F73004932A2
:102C0800435F4F776E4164647265737332436F6ECE
:102C1800666967006D795F6D656D637079005F5FE8
:102C28007365745F4641554C544D41534B00747362
:102C380068775F696E697400464C4153485F4C6F12
:102C4800636B0045585449305F49525148616E647E
:102C58006C65720053797374656D436F7265436C6C
:102C68006F636B557064617465004C43445F496ED3
:102C78006974004750494F5F50696E4C6F636B43EE
:102C88006F6E6669670054494D345F495251486117
:102C98006E646C6572005344494F5F436F6D6D619C
:102CA8006E64436F6D706C6574696F6E436D64001C
:102CB80053445F496E697469616C697A65436172EE
:102CC80064730046534D435F4E4F525352414D4437
:102CD80065496E6974004144435F436D64004C4329
:102CE800445F4269675072696E74660054494D3199
:102CF8005F55505F49525148616E646C6572005F60
:102D08005F6765745F4641554C544D41534B0052C3
:102D180043435F485349436D64005F5F4C445245E9
:102D2800584200464C4153485F57616974466F7278
:102D38004C6173744F7065726174696F6E005344AF
:102D4800494F5F476574526573706F6E7365004EC7
:102D58004D495F48616E646C6572004932435F4457
:102D68004D414C6173745472616E73666572436D44
:102D78006400647261775F7069637475726500538B
:102D880044494F5F476574506F7765725374617437
:102D98006500444D41315F4368616E6E656C365F16
:102DA80049525148616E646C65720053445F4572C4
:102DB800617365005344494F5F53656E64534449DA
:102DC8004F53757370656E64436D64005243435F7F
:102DD8004261636B75705265736574436D64005F1F
:102DE8004D696E5F537461636B5F53697A65004127
:102DF80044435F476574466C6167537461747573C7
:102E0800004932435F534D427573416C6572744398
:102E18006F6E666967004932435F4E41434B506F9E
:102E2800736974696F6E436F6E66696700524343D6
:102E38005F4C5345436F6E66696700535049335F73
:102E480049525148616E646C6572005F5F4C445230
:102E58004558480054494D325F49525148616E64A3
:102E68006C657200627574746F6E73004C43445FD6
:102E78004269675072696E7458590054494D375FFA
:102E880049525148616E646C65720053445F5365E2
:102E98006E64537461747573005243435F4765747D
:102EA800466C61675374617475730050757453741C
:102EB80072696E670046534D435F4E4F52535241FD
:102EC8004D537472756374496E697400444D413191
:102ED8005F4368616E6E656C375F49525148616E39
:102EE800646C6572004932435F444D41436D640030
:102EF8005243435F41504231506572697068436C78
:102F08006F636B436D64005344494F5F4765744674
:102F180049464F436F756E74006D61696E004932A2
:102F2800435F436D64004750494F5F4146494F44F2
:102F380065496E6974004144435F47657449545359
:102F4800746174757300464C4153485F556E6C6FDD
:102F5800636B42616E6B3100525443416C61726D18
:102F68005F49525148616E646C657200464C41532A
:102F7800485F507265666574636842756666657217
:102F8800436D640053445F496E6974005344494F6C
:102F98005F53746172745344494F52656164576159
:102FA8006974004144435F446973634D6F646543CA
:102FB80068616E6E656C436F756E74436F6E66699B
:102FC80067005344494F5F4465496E697400675F01
:102FD80070666E566563746F7273005F65627373B3
:102FE8000043414E315F5343455F49525148616E3A
:102FF800646C6572004144435F5374617274436149
:103008006C6962726174696F6E004144435F496E16
:103018006974004C43445F436F6E536574436F6C2F
:103028006F72004932435F53656E64446174610096
:103038005243435F414443434C4B436F6E66696759
:1030480000464C4153485F4C6F636B42616E6B3175
:1030580000493243315F45525F49525148616E64BD
:103068006C6572005243435F436C6561724954500A
:10307800656E64696E6742697400464C4153485FE7
:1030880050726F6772616D576F7264004C43445F92
:10309800536574436F6C6F7242696743686172006D
:1030A800444D415F436D640054494D335F4952516B
:1030B80048616E646C65720043414E315F5258310D
:1030C8005F49525148616E646C6572005344494FC0
:1030D8005F476574436F6D6D616E64526573706FA1
:1030E8006E736500444D41325F4368616E6E656C76
:1030F800315F49525148616E646C65720046534DA8
:10310800435F436C656172466C6167004750494F85
:103118005F4576656E744F7574707574436D6400A1
:1031280053445F52656164426C6F636B005F5F7309
:1031380065745F50535000464C4153485F45726177
:103148007365506167650053445F456E61626C65E5
:10315800576964654275734F7065726174696F6E03
:1031680000444D415F436C656172495450656E641B
:10317800696E67426974005344494F5F496E6974C8
:10318800537472756374757265004C43445F466985
:103198006C6C4D656D0053445F47657443617264A0
:1031A800496E666F004C43445F447261774C696EA8
:1031B800655F6E6F726D004144435F536F6674774D
:1031C8006172655374617274496E6A65637465648B
:1031D800436F6E76436D640046534D435F436C65A1
:1031E8006172495450656E64696E6742697400463D
:1031F8004C4153485F4572617365416C6C42616E26
:103208006B31506167657300747368775F706F6CBA
:103218006C00464C4153485F47657442616E6B31A0
:10322800537461747573004144435F496E6A656302
:103238007465644368616E6E656C436F6E6669673A
:103248000053445F57726974654D756C7469426CBC
:103258006F636B73004932435F4765744954537415
:1032680061747573004E756D6265724F664279744C
:103278006573005344494F5F436D64496E697453E5
:103288007472756374757265006D61696E5F6C6FD9
:103298006F70005344494F5F5265616444617461C3
:1032A800004144435F416E616C6F675761746368A6
:1032B800646F67436D640054494D385F43435F4909
:1032C800525148616E646C6572004932435F4765CC
:1032D800745045430074735F696E69740046534DBA
:1032E800435F4E414E44436D64004144435F44652F
:1032F800496E6974004750494F5F4554485F4D65B2
:10330800646961496E74657266616365436F6E6670
:103318006967005F5F524556313600464C41534855
:103328005F556E6C6F636B005344494F5F49525150
:1033380048616E646C657200647261775F72656380
:1033480074616E676C655F636F6C6F720054726155
:103358006E73666572456E64005344494F5F496EEB
:1033680069740046534D435F4E414E4445434343C1
:103378006D64005553415254325F49525148616E51
:10338800646C657200485345537461727455705388
:103398007461747573004144435F54656D7053657F
:1033A8006E736F7256726566696E74436D64005F02
:1033B8005F6765745F42415345505249005F5F65DE
:1033C800786964785F7374617274004932435F533B
:1033D8006F6674776172655265736574436D6400D6
:1033E8007072696E74665F6275660074735F63619C
:1033F8006C6962726174650046534D435F4E4F526B
:103408005352414D436D64005243435F436F6E66B0
:10341800696775726174696F6E0054494D365F490A
:10342800525148616E646C657200507574536967D7
:103438006E6564496E74005F5F7365745F424153E3
:1034480045505249004932435F41636B6E6F776C58
:1034580065646765436F6E666967005056445F49E7
:10346800525148616E646C65720046534D435F4724
:103478006574466C61675374617475730044696759
:103488006974735F3234005243435F535953434C5A
:103498004B436F6E66696700446573744275666670
:1034A80065720053797374656D436F7265436C6F11
:1034B800636B0054494D315F43435F495251486142
:1034C8006E646C6572005344494F5F4954436F6E94
:1034D8006669670046534D435F5043434152445326
:1034E8007472756374496E697400575744475F492D
:1034F800525148616E646C65720044656275674D2F
:103508006F6E5F48616E646C6572005243435F473B
:103518006574535953434C4B536F7572636500532D
:1035280044494F5F43454154414954436D64006CDD
:103538004469676974735F3438004C43445F44726C
:103548006177426967436861720055534257616BFE
:103558006555705F49525148616E646C65720041EF
:1035680044435F4765744475616C4D6F6465436F90
:103578006E76657273696F6E56616C7565006974F5
:103588006F61004144435F496E6A656374656453C3
:10359800657175656E6365724C656E677468436FB7
:1035A8006E666967004932435F5472616E736D6974
:1035B8007450454300464C4153485F526561644F1F
:1035C800757450726F74656374696F6E0049324325
:1035D8005F504543506F736974696F6E436F6E66D1
:1035E800696700464C4153485F476574466C61679C
:1035F80053746174757300444D415F436C65617227
:10360800466C61670045585449325F4952514861D8
:103618006E646C6572005243435F4C5349436D645A
:10362800005243435F414842506572697068436C79
:103638006F636B436D6400464C4153485F57616943
:1036480074466F724C61737442616E6B314F706572
:10365800726174696F6E005344494F5F44617461CD
:10366800436F6E666967004469676974735F3732D0
:103678000054494D385F5452475F434F4D5F49529C
:103688005148616E646C6572005472616E73666550
:10369800724572726F72005243435F504C4C436FD5
:1036A8006E666967004C43445F436C65617200460F
:1036B8004C4153485F47657450726566657463682A
:1036C8004275666665725374617475730053445F1E
:1036D80050726F6365737349525153726300444D5E
:1036E800415F537472756374496E697400444D4147
:1036F800315F4368616E6E656C325F495251486153
:103708006E646C6572004932435F4954436F6E665C
:10371800696700636F756E7465725F316D7300441D
:103728004D415F476574495453746174757300491A
:1037380032435F466173744D6F64654475747943B1
:1037480079636C65436F6E666967005344494F5FE0
:10375800537472756374496E697400444D41325FE5
:103768004368616E6E656C335F49525148616E649F
:103778006C6572004932435F4765744C61737445E8
:1037880076656E74004144435F536F667477617267
:10379800655374617274436F6E76436D64004C4375
:1037A800445F536574506978656C005553425F48AF
:1037B800505F43414E315F54585F49525148616EE2
:1037C800646C6572005F5F6765745F5053500049B1
:1037D80032435F526561645265676973746572004C
:1037E80054494D315F5452475F434F4D5F495251E1
:1037F80048616E646C6572004144435F416E616C60
:103808006F675761746368646F675468726573683B
:103818006F6C6473436F6E666967004932435F4239
:083828007974655265616400CA
:1038300007010000A701000000000000E8000000F0
:10384000CF000000FE0000002A010000CA000000B6
:103850009B000000750000004E0100000200000007
:10386000B800000000000000110100004900000045
:103870006501000000000000B40000009B01000092
:10388000150100008400000000000000A2000000FC
:1038900000000000310000002B0000008F0000003D
:1038A000A2010000000000006C000000D000000039
:1038B000610100008D0000008B0100001C00000071
:1038C0002F00000099010000A70000001E0000006A
:1038D00050000000000000007B01000033000000E9
:1038E0000600000029000000D900000000000000D0
:1038F0000000000019010000000000006901000044
:103900000000000000000000A00000000000000017
:1039100012010000000000007C0000000000000018
:103920000000000000000000160100000000000080
:103930000000000095000000D700000056000000C5
:10394000000000009E010000DE00000037000000C3
:103950004F0100004C0000007700000062010000F1
:1039600055000000390000001E010000C0000000EA
:10397000610000000B0100008401000070010000E4
:1039800000000000E1000000550100003F000000C1
:103990003B010000A50100006C01000000000000D8
:1039A00024010000600100008A000000F90000000E
:1039B00063010000000000000000000000000000A3
:1039C00000000000780000005E010000130100000C
:1039D000540000008800000000000000A400000067
:1039E000C9000000040100007F000000000000008A
:1039F000FD000000F70000008801000070000000DA
:103A0000B500000000000000E60000009300000088
:103A1000E4000000C500000091010000A1010000C9
:103A200000000000140000003A00000092000000B6
:103A3000000000000000000003010000160000006C
:103A40004B0100002C0000009F000000B0000000AF
:103A5000D8000000F1000000000000002301000079
:103A600074010000B200000022010000D400000038
:103A7000B600000000000000AD00000026000000BD
:103A800025000000620000000000000000000000AF
:103A90000901000000000000BD000000000000005F
:103AA000F60000008A010000D50000001C010000A3
:103AB0006E000000200000004700000032010000FE
:103AC000DF000000A3000000120000002100000041
:103AD00000000000000000000000000014010000D1
:103AE000FA0000002C010000E3000000E2000000EA
:103AF0008B000000A00100000B0000002700000068
:103B00007C01000000000000870000003901000077
:103B10007F0100009F010000000000005F00000026
:103B20008600000000000000BA0000000000000055
:103B30009E00000080000000B70000003D01000072
:103B400000000000230000006A000000A500000043
:103B5000510100000000000000000000F40000001F
:103B600000000000BF0000003A010000C10000009A
:103B70000000000000000000490100005C0100009E
:103B80000701000096000000690000001701000016
:103B9000A3010000510000008D010000240000007E
:103BA000EF0000002D0100001001000042000000A5
:103BB000F8000000AE0000007A000000480100009C
:103BC00045010000790000001F010000E500000031
:103BD000010000004D000000C700000000000000D0
:103BE00036000000910000000D00000028000000D9
:103BF0009C010000730100005B01000079010000DE
:103C00001D0000009201000000000000EA0000001A
:103C10003C010000000000008E0000007D0100005B
:103C20006F01000078010000360100000400000070
:103C300066000000000000000000000027010000F6
:103C40005900000032000000830100001100000054
:103C50006800000000000000960100006D000000F8
:103C6000480000000000000000000000000000000C
:103C70004300000000000000810100006B01000013
:103C8000EB0000000000000082000000FB000000CC
:103C900000000000000000003C00000044000000A4
:103CA000000000000F0100003001000000000000D3
:103CB00000000000000000001B00000000000000E9
:103CC000000000009D0000005A000000710100008B
:103CD000000000008F01000000000000AB000000A9
:103CE000000000000000000000000000A90000002B
:103CF0002601000052010000370100000000000012
:103D00000000000000000000200100000000000092
:103D1000CB0000007B000000F3000000000000006A
:103D20004A0100009501000000000000340000007E
:103D3000000000000D010000000000000000000075
:103D40000000000000000000000000000000000073
:103D5000A600000000000000460000000000000077
:103D60000000000057010000A80000000000000053
:103D7000000000000000000000000000FC00000047
:103D8000000000007E000000C300000000000000F2
:103D90006D010000000000000000000000000000B5
:103DA000AA00000002010000000000000000000066
:103DB00000000000150000000000000000000000EE
:103DC000930100001900000018010000000000002D
:103DD00000000000000000004F000000CC000000C8
:103DE00000000000100000000000000000000000C3
:103DF0002A0000006B000000A60100004C0100003A
:103E0000580100009D010000000000003500000086
:103E100000000000DD0000000000000000000000C5
:103E20004B000000AF000000000000000000000098
:103E300000000000470100000A0000001A00000016
:103E400000000000D6000000000000001300000089
:103E50005D000000F200000065000000CD000000E1
:103E600098010000B1000000000000000000000008
:103E70008E010000430100002D000000E70000005B
:103E8000000000002E0000002501000000000000DE
:103E90002E0100000000000000000000990000005A
:103EA00031010000DB000000EC0000000000000019
:103EB0007200000053010000D10000004201000028
:103EC00000000000FF0000000000000000000000F3
:103ED0000000000073000000E0000000710000001E
:103EE0007400000000000000000000000501000058
:103EF0004000000000000000ED000000BB000000DA
:103F0000000000006700000000000000000000004A
:103F10000800000000000000300000000000000069
:103F200000000000D2000000C600000000000000F9
:103F300083000000090000002200000000000000D3
:103F400000000000850000000000000045000000A7
:103F500058000000000000008C00000090010000EC
:103F60000000000007000000F0000000000000005A
:103F7000A10000008001000000000000000000001F
:103F800000000000750100003E0100006E0100000D
:103F90000E0000003F0100000000000000000000D3
:103FA000000000003B0000000000000008010000CD
:103FB0009000000001010000380000000000000037
:103FC00000000000000000000000000000000000F1
:103FD0000000000000000000000000009701000049
:103FE0000000000000000000410000000000000090
:103FF0000000000000000000000000002801000098
:10400000530000000000000000000000B3000000AA
:10401000000000007A010000570000006801000065
:104020000000000000000000DC00000000000000B4
:1040300077010000180000001F00000000000000D1
:10404000000000000000000000000000640100000B
:104050000000000034010000000000004D010000DD
:1040600086010000000000000000000000000000C9
:104070002101000000000000C4000000000000005A
:104080000000000000000000000000000000000030
:104090002B0100000000000000000000EE00000006
:1040A0000000000000000000E9000000890100009D
:1040B000670100000F0000008C0100006601000095
:1040C0000000000000000000380100007601000040
:1040D0000C00000000000000820100000A01000046
:1040E0004601000000000000000000000000000089
:1040F00029010000000000009A00000000000000FC
:1041000000000000000000001D0100000000000091
:1041100000000000C20000004A000000B9000000DA
:1041200000000000CE0000008100000054010000EB
:10413000DA00000000000000440100006F000000F1
:1041400094000000000000000000000000000000DB
:10415000060100005A0100000000000000000000FD
:104160000000000000000000D3000000000000007C
:1041700000000000000000000E0100000000000030
:104180008501000059010000000000001A01000034
:104190000000000098000000000000005F01000027
:1041A000000000007D0000003D0000000000000055
:1041B0000000000000000000000000007600000089
:1041C00040010000000000000C01000000000000A1
:1041D0000000000000000000C80000000001000016
:1041E0008900000000000000000000001B0100002A
:1041F0000000000035010000000000005E0000002B
:104200009A01000050010000630000005601000008
:1042100000000000640000005200000033010000B4
:104220004E00000000000000000000000000000040
:10423000000000000000000000000000000000007E
:10424000940100009C0000000000000072010000CA
:104250003E00000000000000000000000000000020
:104260005D010000000000000000000041010000AE
:1042700000000000600000000000000017000000C7
:10428000970000006A01000000000000000000002C
:104290000000000000000000870100000500000091
:1042A000000000000000000000000000000000000E
:1042B0000000000000000000BE000000BC00000084
:1042C000000000005C000000A40100005B00000092
:1042D000AC0000007E0100000000000003000000B0
:1042E000F500000000000000000000002F010000A9
:1042F0000701000001000000800000000C00000029
:10430000020110020A004800001022040C202000C4
:104310002000D000866DF45240000042A8044020E6
:10432000464211860420002074400A0A9000008151
:104330000010008C139220A20220000001350324FB
:104340004000024210400022600000000100001105
:10435000004C80000884098010B420004400400212
:10436000320008110140A022A028305800410A065E
:10437000D08132130053000009C812180B020D81BE
:1043800006800001900C0009C00CB20120C360003F
:1043900000CA0C0000923100AA88100004400014EA
:1043A0000308C20044034008A8D49000C0000000E5
:1043B000028006A008400A00002000804105E58C2C
:1043C000000001020020100840307401D152402248
:1043D00004004000002322000809888044221001C4
:1043E0002D0C10400040800000520010A4400A41F3
:1043F0002A00080080206480126108008043214266
:10440000271400960020A08080000001FA00000020
:10441000600040040008046320008005550F820DF1
:10442000028035500107100020400000886000081D
:1044300000000000020000800000005050801004C6
:104440000020000800016040021C6A0211252E12A3
:1044500034428888120080A221422800068A400641
:10446000050000228001080143800E112330088AD4
:1044700041A0000A000085800000000000100080BC
:10448000000A048424820240000202000201000AA1
:104490000100400020500008000009482A4884829A
:1044A0000009500002A000010000000048B0010017
:1044B000D300B10100807000011CD20A2C0CA00CAA
:1044C00085123F205404808900C053500001000130
:1044D00091403000290300230000810020F080601B
:1044E000224004050240000C40CB80149007C41207
:1044F0002428000080CA84A190282A08089F180652
:1045000000000000010000000200000003000000A5
:104510000500000006000000070000000800000081
:104520000C0000000E0000000F0000000000000062
:10453000100000000000000011000000000000005A
:104540000000000013000000000000001500000043
:104550000000000000000000160000000000000045
:10456000190000001A0000001C00000000000000FC
:104570001E000000200000002100000023000000B9
:104580002400000027000000290000002A0000008D
:104590002C0000002D0000002E0000002F00000065
:1045A0003200000034000000390000003D0000002F
:1045B0003E000000400000004300000045000000F5
:1045C00046000000480000004A0000004E000000C5
:1045D000000000004F00000000000000500000003C
:1045E0005400000055000000570000005A00000071
:1045F0005D0000005E0000006000000000000000A0
:1046000000000000620000000000000063000000E5
:1046100000000000650000006600000000000000CF
:104620006B0000006D000000000000007100000041
:104630007400000075000000760000007B000000A0
:10464000000000007C000000000000007D00000071
:1046500080000000810000000000000084000000D5
:10466000850000008B0000008E00000000000000AC
:104670008F000000910000009300000094000000F3
:104680009600000097000000980000009D000000C8
:10469000A0000000A1000000A4000000A70000008E
:1046A000A9000000AA00000000000000AB0000000C
:1046B000AD000000B200000000000000000000009B
:1046C000B3000000B400000000000000B6000000CD
:1046D000B7000000B9000000BA000000BB000000F5
:1046E000BF000000C0000000C2000000C3000000C6
:1046F000C700000000000000CA000000CB0000005E
:10470000CD000000D1000000D40000000000000037
:1047100000000000D500000000000000D6000000EE
:10472000D7000000D9000000DA00000000000000FF
:10473000DB000000DD000000DE000000E000000003
:1047400000000000E3000000E5000000E6000000BB
:10475000E7000000E9000000EA000000EB000000B4
:10476000ED000000EF000000F2000000F300000088
:10477000F5000000F7000000F8000000FA0000005B
:10478000FB000000FC00000000000000FD00000035
:10479000FF00000000010000010100000000000017
:1047A00002010000030100000501000008010000F3
:1047B0000A0100000E0100001001000011010000BC
:1047C0001301000014010000160100001701000091
:1047D000180100001B0100001C0100001E01000068
:1047E0002001000022010000250100002901000035
:1047F0002B0100000000000000000000000000008D
:104800002E0100003301000000000000350100000F
:104810003601000037010000390100003C010000B2
:10482000000000003E010000000000004001000008
:104830004101000046010000000000004A010000A4
:104840004D01000050010000520100005301000022
:104850005601000057010000590100005B010000F3
:104860005C0100005F01000000000000000000008B
:104870000000000062010000640100000000000070
:104880006601000067010000690100006A01000084
:104890006D010000710100007401000000000000C3
:1048A00075010000000000007A0100000000000017
:1048B0007B0100007D0100008001000081010000FB
:1048C0008501000000000000860100008901000051
:1048D0008C0100008E01000091010000000000002A
:1048E00092010000930100000000000000000000A1
:1048F0009401000096010000990100009A01000057
:104900009B0100009E010000A0010000A101000029
:1049100000000000A4010000A501000019C35520FB
:104920000D28CEE4AC516772D53A87A997E2982753
:104930005B7F1930B567290F52616A85FA9AFAC010
:1049400066796CE7FB9882BF68334527815D2361F8
:1049500047D3FE527BBC4D41DFBCDB478CA1C184F9
:104960008568384C78C28368F7B56F09356A138358
:10497000BCB032FEDA58327C2B6EF402B39FDAB848
:104980004A14EFBC85BF6E1DAC838C844DAABE87D4
:10499000648F426FA30E10355D4ED95E64E7F17DE2
:1049A000D1BF3AC0FDE4967C4E6EDFA7BCFFD98133
:1049B000754AACD70ABC72846182D9326B8F426F60
:1049C0008440593C91630648C34451A42925F263AD
:1049D000FF93B242A07A43EF064149E2EFA907FFF5
:1049E000C0EAEA3BE90701377C663120CC1142403E
:1049F000688E81A64A9FFC8397602978A8F117E406
:104A0000FA3F4E23EC01C564D70ED5B8FB68AC70F5
:104A1000CAAD32C301249EC34462D6E4B4045D0926
:104A20006D6DC2EBB88825906378880BEB88E277D0
:104A3000185FB8CEF323DFCD788F426FA3355B8A42
:104A400062D02C9AAAE85F5C781CA42B519CD2ED12
:104A500029EA21D2EF3FC09014BD060DD68817B9C0
:104A6000B8DE950BD13C03828B2F3C6AF0C1C2D8D3
:104A70009D1319DE5ECEFF3F405A473E939438F6B1
:104A8000506A0D44284953B329B59D9FFD81504973
:104A9000E2A0A618D16DB52CFE7E433E21AFBF34F7
:104AA000F5BF3AC0B451A594393B01D17DCA372B2B
:104AB0002CD171EE8EF4108634D85257EC01BC68BC
:104AC0007D2F3F164AFFB6F78517AE210CBA9D59C8
:104AD000082C4D97E6A9B3B3B9DFC98094EE80BE28
:104AE000F00128B5ED9F662C793BA79371E38E54B6
:104AF00000EFB4BBE0085809809BF5AA46B1F7A2C5
:104B0000A95E6E39E35D2A1A09904B279843AA845F
:104B10004245D5EC1F6254B1E508BCB618129B1192
:104B200060DB0004E19AA39093153E04929AD0D2E0
:104B30006637D331EEE7074EEAADE408987D73227D
:104B400065689E7C8E4A42DEAE0142471F9104B7E3
:104B50001F59D9DF2E92D5ADFF3C56FAB48606A474
:104B60002189E6A14B75A22E8A34F3B5E57E7B59E7
:104B700037930DE44F91A93D76543C94EA18F36DB8
:104B80006CB94BEDE27DAB945D975A4EB2D83DF3D4
:104B900054C62068238EE7C21F2766EF181860FDF1
:104BA000E69692EF758468C5B8D12DE0247E614009
:104BB000A390731D124314AD7B8C1442151040EA70
:104BC000917DA6CB46EF0845E350E208D2E74403C7
:104BD00000532E0D1457B60EEA25AD4ECF7484BB8C
:104BE0008F6B0C1C3FBE77AE1AF881A8011E0D8E8C
:104BF00069C66C4BCEC2EA13CBF647C22F1C619E2E
:104C00001507D469125E0DB07E8141C120D3F9CA67
:104C1000E185CAA6CDA25C843E9C7EBFFB24F053F6
:104C20004B74D1A0CCF5CBF2B0A2EEAFE6926539D1
:104C3000150EEB94FAAD9F786048E6DF0109B5AB3D
:104C400035E30A82B2D0249FB5FDD8AA326095031D
:104C50002A44CE536E84FEE2C1B304DD7802E02321
:104C60000A6529786706E675EB5C740F4D56B383C9
:104C7000E183194AD2DF40B95B533FCD1D0E262F89
:104C800061BB3B55506EBD9E05C85DBD7F1B1E348C
:104C90001A91A370297B506AE85769753C426CCC25
:104CA0009BF13186C4D7A466814E41B84DE5267C80
:104CB000F165C1AD00E13EF08337773A9F2A62EAA1
:104CC000E3D610D13A84292A27658FF5BED7F60E90
:104CD000A59A774C225C4AA4AEFF0D7C712AEF0E98
:104CE000FB657C13B494CE99630DF393A8407B0EBF
:104CF0001196EB0EAF9396BF1C13BAFC51C03AC08D
:104D00001BFC6519BF50236153BA524F12F9B637D5
:104D1000EDFEB4B5F3AFB8C559883750411BBFEBB2
:104D2000B56D330CB610C2410B57D62458CAAE200D
:104D3000CA4489B16DFDE4339626AC0D3BB625AD72
:104D4000FC700C0FDA9D0BE3A88EB98957550E7DC8
:104D500064CBB6AFD57DF165FFDE598AF66069A2F6
:104D6000870DFA42F39C77D06641CE88D3860A3607
:104D7000C95A7297178DAE70960CFAB25A50E1B3B9
:104D8000D57F024CE578856F8CBB7D6DE362312D5C
:104D9000CC0D2A266B9A2D2EE288C7DB0361F626FE
:104DA000F6FA5630E22CD3184541C40B1C9E082D50
:104DB000A8D648FCEAA1C3C65DE3E105F4495EEC70
:104DC000AD5CAA28767F83862EBF551BAFA222A199
:104DD000C054583F00153C8DCEC3A9E446B44EA242
:104DE000A141D2A2EE1CDEEC95937BDF17158769FB
:104DF000F5865977625081C701A8E40E8E4E3C8D2E
:104E0000F40504D56F94DA22B67F8C3AC5C2A6B4F5
:104E1000381D96AD975AF278A916B75A60DAB0BA2B
:104E200078A325819ABBE3072A99B0A8554489FE47
:104E30004EC7FAA72A6E9841A6A0AEABE99F930E83
:104E4000D0E3DAA3BE2BF3702130E0BEBE19F6A882
:104E5000FAC46961FF65D2DBB8C1C838D5C3B311E4
:104E6000AFBC298FA23215D7FE7CA398739F987C84
:104E7000EDFB6B0B3E78978843118933C087628CBA
:104E80001D9B21AC5978DCDA2010F439DA33B88074
:104E900059743AAFB4940621445302301B2F2111A8
:104EA0009073648BE37DDF6AE033B8806F17918A7B
:104EB00051EEDC9102CE5AF88DBF3AC0DF60847D9E
:104EC0009473D4C9EECEECDE030BF269E2BA36A8D5
:104ED000DA5F4921944D885C6765BC2736E77ADC48
:104EE000728ABA6BBFF256F8857E3A2B5C1B50FC77
:104EF000B4205CED84BAFFD3127EEA08E797752AE6
:104F00002D2134ED62E938AA5966081BF033B880C8
:104F10004E45FB7E5366219A6746B6C76E96AF35FF
:104F2000D442B6CC02B76A739B68F1622D46E7089B
:104F30006287B1C8BEDA571BD55A42D58AB2A2FAE7
:104F4000BCC168384F2B0DFC080159CEAF60876794
:104F50005C0BCCF72EDD748A017547BCAF15B58D9F
:104F60002B749EFF89F306F4DCE90773593B355B2C
:104F7000AEC4B8589C15A90FB37768C5F5AD57E80E
:104F80005D8F1A64B07BA3D5526BB07415C91D6DCB
:104F9000CA4F3E6A55B39213AFBF3AC0C276597733
:104FA0009EF502290F841DE64F59323CD890A50981
:044FB0006B7F9A7CFD
:104FB40080B582B000AF2A237B6003F009FC4FF474
:104FC4008060012109F084FF0220012109F080FFA3
:104FD4000AF0F2F800F03EF878607B682A2B01D0E2
:104FE4007B6832E000F0CCF978607B682A2B01D032
:104FF4007B682AE040F25013C2F2000301221A75C2
:1050040040F25013C2F2000300221A6040F250131F
:10501400C2F2000300225A6040F25013C2F20003AD
:1050240000229A6040F25013C2F200030022DA60B8
:1050340040F25013C2F2000300221A6140F25010F1
:10504400C2F200000AF0F8F87B6818460837BD463B
:1050540080BD00BF80B586B000AF2A237B610023EA
:105064003B610023FB600023FB7200237B6040F262
:105074005013C2F20003B2221A7540F25013C2F266
:10508400000300221A6040F25013C2F2000300220F
:105094005A6040F25013C2F2000300229A6040F2B8
:1050A4005013C2F200030022DA6040F25013C2F23D
:1050B400000300221A6140F25010C2F200000AF00C
:1050C400BBF803200AF014F901200AF003F940F2B6
:1050D4006813C2F2000300221A6040F26813C2F29D
:1050E400000300225A6040F26813C2F20003002257
:1050F4009A6040F26813C2F200030022DA6040F2C0
:105104006813C2F200034FF480621A6140F268101F
:10511400C2F200000AF054F902F0DCFD78617B6908
:105124002A2B01D07B6919E140F26813C2F2000313
:105134004FF4D5721A6040F26813C2F200030822D9
:105144005A6040F26813C2F2000340229A6040F2AF
:105154006813C2F200030022DA6040F26813C2F25C
:1051640000034FF480621A6140F26810C2F200003A
:105174000AF026F902F0D4FD78617B692A2B09D163
:1051840040F2D803C2F2000301221A604FF08043B8
:105194007B6028E040F26813C2F2000300221A6028
:1051A40040F26813C2F2000337225A6040F26813D7
:1051B400C2F2000340229A6040F26813C2F2000374
:1051C4000022DA6040F26813C2F200034FF48062F6
:1051D4001A6140F26810C2F200000AF0F1F83720B8
:1051E40002F0DEFD786140F26813C2F2000300228F
:1051F4001A6040F26813C2F2000337225A6040F288
:105204006813C2F2000340229A6040F26813C2F2AB
:1052140000030022DA6040F26813C2F200034FF484
:1052240080621A6140F26810C2F200000AF0C8F805
:10523400372002F0B5FD78617B692A2B40F08D8020
:105244006DE040F26813C2F2000300221A6040F2DB
:105254006813C2F2000337225A6040F26813C2F2A4
:10526400000340229A6040F26813C2F20003002255
:10527400DA6040F26813C2F200034FF480621A61EC
:1052840040F26810C2F200000AF09AF8372002F0E7
:1052940087FD78617B692A2B01D07B695EE07B689E
:1052A40043F0004242F4801240F26813C2F2000359
:1052B4001A6040F26813C2F2000329225A6040F2D5
:1052C4006813C2F2000340229A6040F26813C2F2EB
:1052D40000030022DA6040F26813C2F200034FF4C4
:1052E40080621A6140F26810C2F200000AF068F8A5
:1052F40002F02CFE78617B692A2B01D07B692DE0BA
:1053040000200AF0B5F838613B69DB0F012B01D1AD
:10531400012300E00023FB72FB680133FB60FB7A8E
:10532400002B04D1FA684FF6FE739A4289D9FA68C1
:105334004FF6FE739A4203D91B237B617B690DE010
:105344003B6903F080433B613B69002B05D040F28D
:10535400D803C2F2000302221A607B691846183788
:10536400BD4680BD80B582B000AF2A237B6000209B
:1053740009F0BEFF7B6818460837BD4680BD00BFF4
:1053840080B582B000AF2A237B6001237B8009F0C3
:10539400D1FF0346002B03D125237B607B6807E103
:1053A40040F2D803C2F200031B68042B50D040F231
:1053B4006813C2F2000300221A6040F26813C2F2BA
:1053C400000302225A6040F26813C2F20003C022B2
:1053D4009A6040F26813C2F200030022DA6040F2DD
:1053E4006813C2F200034FF480621A6140F268103D
:1053F400C2F2000009F0E4FF02F0D4FD78607B689B
:105404002A2B01D07B68D3E000200AF031F8024651
:1054140040F2EC03C2F200031A6004200AF028F8F8
:10542400024640F2EC03C2F200035A6008200AF07C
:105434001FF8024640F2EC03C2F200039A600C200B
:105444000AF016F8024640F2EC03C2F20003DA60F6
:1054540040F2D803C2F200031B68002B14D040F2C0
:10546400D803C2F200031B68012B0DD040F2D8030D
:10547400C2F200031B68062B06D040F2D803C2F226
:1054840000031B68022B2FD140F26813C2F2000301
:1054940000221A6040F26813C2F2000303225A6029
:1054A40040F26813C2F2000340229A6040F268138B
:1054B400C2F200030022DA6040F26813C2F2000371
:1054C4004FF480621A6140F26810C2F2000009F0E1
:1054D40077FFBB1C0320194602F09CFD78607B68B3
:1054E4002A2B01D07B6863E040F2D803C2F20003A8
:1054F4001B68042B59D07B881A4640F2FC03C2F285
:1055040000031A607B881B041A4640F26813C2F237
:1055140000031A6040F26813C2F2000309225A60C1
:1055240040F26813C2F20003C0229A6040F268138A
:10553400C2F200030022DA6040F26813C2F20003F0
:105544004FF480621A6140F26810C2F2000009F060
:1055540037FF02F027FD78607B682A2B01D07B6837
:1055640026E0002009F084FF024640F2DC03C2F288
:1055740000031A60042009F07BFF024640F2DC03BA
:10558400C2F200035A60082009F072FF024640F29A
:10559400DC03C2F200039A600C2009F069FF0246A2
:1055A40040F2DC03C2F20003DA602A237B607B68EA
:1055B40018460837BD4680BD80B485B000AF78601A
:1055C4002A23BB600023FB7340F2D803C2F200031A
:1055D4001B68DAB27B6883F84E2040F2FC03C2F207
:1055E40000031B689AB27B68A3F84C2040F2DC03EA
:1055F400C2F200031B681B0EFB73FB7B9B09DAB230
:105604007B681A70FB7B03F03C039B10DAB27B6867
:105614005A70FB7B03F00303DAB27B689A7040F2A2
:10562400DC03C2F200031B6803F47F031B0CFB734F
:105634007B68FA7BDA7040F2DC03C2F200031B6879
:1056440003F47F431B0AFB737B68FA7B1A7140F2F5
:10565400DC03C2F200031B68FB737B68FA7B5A719C
:1056640040F2DC03C2F200035B681B0EFB73FB7B9E
:105674009BB21B019AB27B68DA8040F2DC03C2F26F
:1056840000035B6803F47F031B0CFB737B68DB88FC
:105694009AB2FB7B1B09DBB213439AB27B68DA80B4
:1056A400FB7B03F00F03DAB27B681A7240F2DC036F
:1056B400C2F200035B6803F47F431B0AFB73FB7BAA
:1056C400DB09DAB27B685A72FB7B03F040039B115F
:1056D400DAB27B689A72FB7B03F020035B11DAB2C7
:1056E4007B68DA72FB7B03F010031B11DAB27B6870
:1056F4001A737B6800225A7340F2D803C2F2000383
:105704001B68002B06D040F2D803C2F200031B68CA
:10571400012B7FD1FB7B03F003039B021A467B68BA
:105724001A6140F2DC03C2F200035B68FB737B681E
:105734001A69FB7B9B001A437B681A6140F2DC0305
:10574400C2F200039B681B0EFB737B681A69FB7B28
:105754009B09DBB21A437B681A61FB7B03F03803B5
:10576400DB10DAB27B681A75FB7B03F00703DAB24D
:105774007B685A7540F2DC03C2F200039B6803F4B1
:105784007F031B0CFB73FB7B5B09DAB27B689A75A6
:10579400FB7B03F01C039B10DAB27B68DA75FB7B9E
:1057A40003F00303DBB25B00DAB27B681A7640F2E3
:1057B400DC03C2F200039B6803F47F431B0AFB7300
:1057C4007B681B7EDAB2FB7BDB09DBB21343DAB204
:1057D4007B681A767B681B695A1C7B685A647B68F1
:1057E4005A6C7B681B7EDBB202339A407B685A6436
:1057F4007B681B7ADBB2012202FA03F31A467B6848
:105804009A647B685B6C7A68926C02FB03F27B6837
:105814005A6443E040F2D803C2F200031B68022B2F
:105824003CD140F2DC03C2F200035B68FB73FB7BF8
:1058340003F03F031B041A467B681A6140F2DC0341
:10584400C2F200039B681B0EFB737B681A69FB7B27
:105854001B021A437B681A6140F2DC03C2F20003A4
:105864009B6803F47F031B0CFB737B681A69FB7B47
:105874001A437B681A6140F2DC03C2F200039B689E
:1058840003F47F431B0AFB737B681B690133DA044F
:105894007B685A647B684FF400729A64FB7B03F064
:1058A40040039B11DAB27B685A76FB7B03F03F031B
:1058B400DBB25B00DAB27B689A7640F2DC03C2F2B8
:1058C40000039B68FB737B689B7EDAB2FB7BDB097E
:1058D400DBB21343DAB27B689A76FB7B03F07F0377
:1058E400DAB27B68DA7640F2DC03C2F20003DB68EA
:1058F4001B0EFB73FB7BDB09DAB27B681A77FB7B3D
:1059040003F060035B11DAB27B685A77FB7B03F028
:105914001C039B10DAB27B689A77FB7B03F00303CA
:10592400DBB29B00DAB27B68DA7740F2DC03C2F2C6
:105934000003DB6803F47F031B0CFB737B68DB7FD2
:10594400DAB2FB7B9B09DBB21343DAB27B68DA770A
:10595400FB7B03F020035B11DAB27B6883F8202021
:105964007B68002283F82120FB7B03F00103DAB279
:105974007B6883F8222040F2DC03C2F20003DB6878
:1059840003F47F431B0AFB73FB7BDB09DAB27B68FE
:1059940083F82320FB7B03F040039B11DAB27B687E
:1059A40083F82420FB7B03F020035B11DAB27B68CD
:1059B40083F82520FB7B03F010031B11DAB27B680C
:1059C40083F82620FB7B03F00C039B10DAB27B6880
:1059D40083F82720FB7B03F00303DAB27B6883F8A8
:1059E400282040F2DC03C2F20003DB68FB73FB7B7C
:1059F4005B08DAB27B6883F829207B68012283F88C
:105A04002A2040F2EC03C2F200031B681B0EFB7356
:105A14007B68FA7B83F82C2040F2EC03C2F200038B
:105A24001B6803F47F031B0CFB73FB7B9BB21B0201
:105A34009AB27B68DA8540F2EC03C2F200031B6879
:105A440003F47F431B0AFB737B68DB8D9AB2FB7BF9
:105A54009BB213439AB27B68DA8540F2EC03C2F23C
:105A640000031B68FB73FB7B1B061A467B681A63E7
:105A740040F2EC03C2F200035B681B0EFB737B680D
:105A84001A6BFB7B1B041A437B681A6340F2EC031A
:105A9400C2F200035B6803F47F031B0CFB737B6897
:105AA4001A6BFB7B1B021A437B681A6340F2EC03FC
:105AB400C2F200035B6803F47F431B0AFB737B6839
:105AC4001A6BFB7B1A437B681A6340F2EC03C2F245
